{"abi":[{"type":"constructor","inputs":[{"name":"_token","type":"address","internalType":"address"},{"name":"_treasury","type":"address","internalType":"address"},{"name":"_resolverSigner","type":"address","internalType":"address"},{"name":"_houseEdgeBps","type":"uint16","internalType":"uint16"}],"stateMutability":"nonpayable"},{"type":"function","name":"EMERGENCY_DELAY","inputs":[],"outputs":[{"name":"","type":"uint256","internalType":"uint256"}],"stateMutability":"view"},{"type":"function","name":"MAX_HOUSE_EDGE","inputs":[],"outputs":[{"name":"","type":"uint16","internalType":"uint16"}],"stateMutability":"view"},{"type":"function","name":"betCounter","inputs":[],"outputs":[{"name":"","type":"uint256","internalType":"uint256"}],"stateMutability":"view"},{"type":"function","name":"bets","inputs":[{"name":"","type":"uint256","internalType":"uint256"}],"outputs":[{"name":"player","type":"address","internalType":"address"},{"name":"amount","type":"uint256","internalType":"uint256"},{"name":"boxX","type":"uint32","internalType":"uint32"},{"name":"boxRow","type":"uint16","internalType":"uint16"},{"name":"multNum","type":"uint16","internalType":"uint16"},{"name":"resolved","type":"bool","internalType":"bool"},{"name":"placedAt","type":"uint256","internalType":"uint256"}],"stateMutability":"view"},{"type":"function","name":"commitGridSeed","inputs":[{"name":"commitment","type":"bytes32","internalType":"bytes32"}],"outputs":[],"stateMutability":"nonpayable"},{"type":"function","name":"commitmentUsed","inputs":[],"outputs":[{"name":"","type":"bool","internalType":"bool"}],"stateMutability":"view"},{"type":"function","name":"currentCommitment","inputs":[],"outputs":[{"name":"","type":"bytes32","internalType":"bytes32"}],"stateMutability":"view"},{"type":"function","name":"currentEpochId","inputs":[],"outputs":[{"name":"","type":"uint256","internalType":"uint256"}],"stateMutability":"view"},{"type":"function","name":"executeEmergencyExit","inputs":[{"name":"betId","type":"uint256","internalType":"uint256"}],"outputs":[],"stateMutability":"nonpayable"},{"type":"function","name":"exitRequestedAt","inputs":[{"name":"","type":"uint256","internalType":"uint256"}],"outputs":[{"name":"","type":"uint256","internalType":"uint256"}],"stateMutability":"view"},{"type":"function","name":"expectedPayout","inputs":[{"name":"id","type":"uint256","internalType":"uint256"}],"outputs":[{"name":"","type":"uint256","internalType":"uint256"}],"stateMutability":"view"},{"type":"function","name":"fundHouseBank","inputs":[{"name":"amount","type":"uint256","internalType":"uint256"}],"outputs":[],"stateMutability":"nonpayable"},{"type":"function","name":"houseBankBalance","inputs":[],"outputs":[{"name":"","type":"uint256","internalType":"uint256"}],"stateMutability":"view"},{"type":"function","name":"houseEdgeBps","inputs":[],"outputs":[{"name":"","type":"uint16","internalType":"uint16"}],"stateMutability":"view"},{"type":"function","name":"owner","inputs":[],"outputs":[{"name":"","type":"address","internalType":"address"}],"stateMutability":"view"},{"type":"function","name":"placeBet","inputs":[{"name":"boxX","type":"uint32","internalType":"uint32"},{"name":"boxRow","type":"uint16","internalType":"uint16"},{"name":"multNum","type":"uint16","internalType":"uint16"},{"name":"amount","type":"uint256","internalType":"uint256"}],"outputs":[{"name":"betId","type":"uint256","internalType":"uint256"}],"stateMutability":"nonpayable"},{"type":"function","name":"renounceOwnership","inputs":[],"outputs":[],"stateMutability":"nonpayable"},{"type":"function","name":"requestEmergencyExit","inputs":[{"name":"betId","type":"uint256","internalType":"uint256"}],"outputs":[],"stateMutability":"nonpayable"},{"type":"function","name":"resolveBet","inputs":[{"name":"betId","type":"uint256","internalType":"uint256"},{"name":"won","type":"bool","internalType":"bool"},{"name":"serverSig","type":"bytes","internalType":"bytes"}],"outputs":[],"stateMutability":"nonpayable"},{"type":"function","name":"resolverSigner","inputs":[],"outputs":[{"name":"","type":"address","internalType":"address"}],"stateMutability":"view"},{"type":"function","name":"revealGridSeed","inputs":[{"name":"seed","type":"bytes32","internalType":"bytes32"}],"outputs":[],"stateMutability":"nonpayable"},{"type":"function","name":"setHouseEdge","inputs":[{"name":"v","type":"uint16","internalType":"uint16"}],"outputs":[],"stateMutability":"nonpayable"},{"type":"function","name":"setResolverSigner","inputs":[{"name":"v","type":"address","internalType":"address"}],"outputs":[],"stateMutability":"nonpayable"},{"type":"function","name":"setTreasury","inputs":[{"name":"v","type":"address","internalType":"address"}],"outputs":[],"stateMutability":"nonpayable"},{"type":"function","name":"token","inputs":[],"outputs":[{"name":"","type":"address","internalType":"contract IERC20"}],"stateMutability":"view"},{"type":"function","name":"transferOwnership","inputs":[{"name":"newOwner","type":"address","internalType":"address"}],"outputs":[],"stateMutability":"nonpayable"},{"type":"function","name":"treasury","inputs":[],"outputs":[{"name":"","type":"address","internalType":"address"}],"stateMutability":"view"},{"type":"function","name":"withdrawHouseBank","inputs":[{"name":"a","type":"uint256","internalType":"uint256"}],"outputs":[],"stateMutability":"nonpayable"},{"type":"event","name":"BetPlaced","inputs":[{"name":"betId","type":"uint256","indexed":true,"internalType":"uint256"},{"name":"player","type":"address","indexed":true,"internalType":"address"},{"name":"boxX","type":"uint32","indexed":false,"internalType":"uint32"},{"name":"boxRow","type":"uint16","indexed":false,"internalType":"uint16"},{"name":"multNum","type":"uint16","indexed":false,"internalType":"uint16"},{"name":"amount","type":"uint256","indexed":false,"internalType":"uint256"}],"anonymous":false},{"type":"event","name":"BetResolved","inputs":[{"name":"betId","type":"uint256","indexed":true,"internalType":"uint256"},{"name":"player","type":"address","indexed":true,"internalType":"address"},{"name":"won","type":"bool","indexed":false,"internalType":"bool"},{"name":"payout","type":"uint256","indexed":false,"internalType":"uint256"}],"anonymous":false},{"type":"event","name":"EmergencyExitExecuted","inputs":[{"name":"betId","type":"uint256","indexed":true,"internalType":"uint256"},{"name":"player","type":"address","indexed":true,"internalType":"address"},{"name":"amount","type":"uint256","indexed":false,"internalType":"uint256"}],"anonymous":false},{"type":"event","name":"EmergencyExitRequested","inputs":[{"name":"betId","type":"uint256","indexed":true,"internalType":"uint256"},{"name":"player","type":"address","indexed":true,"internalType":"address"}],"anonymous":false},{"type":"event","name":"GridSeedCommitted","inputs":[{"name":"epochId","type":"uint256","indexed":true,"internalType":"uint256"},{"name":"commitment","type":"bytes32","indexed":false,"internalType":"bytes32"}],"anonymous":false},{"type":"event","name":"GridSeedRevealed","inputs":[{"name":"epochId","type":"uint256","indexed":true,"internalType":"uint256"},{"name":"seed","type":"bytes32","indexed":false,"internalType":"bytes32"}],"anonymous":false},{"type":"event","name":"HouseBankFunded","inputs":[{"name":"funder","type":"address","indexed":true,"internalType":"address"},{"name":"amount","type":"uint256","indexed":false,"internalType":"uint256"}],"anonymous":false},{"type":"event","name":"OwnershipTransferred","inputs":[{"name":"previousOwner","type":"address","indexed":true,"internalType":"address"},{"name":"newOwner","type":"address","indexed":true,"internalType":"address"}],"anonymous":false},{"type":"error","name":"ECDSAInvalidSignature","inputs":[]},{"type":"error","name":"ECDSAInvalidSignatureLength","inputs":[{"name":"length","type":"uint256","internalType":"uint256"}]},{"type":"error","name":"ECDSAInvalidSignatureS","inputs":[{"name":"s","type":"bytes32","internalType":"bytes32"}]},{"type":"error","name":"OwnableInvalidOwner","inputs":[{"name":"owner","type":"address","internalType":"address"}]},{"type":"error","name":"OwnableUnauthorizedAccount","inputs":[{"name":"account","type":"address","internalType":"address"}]},{"type":"error","name":"ReentrancyGuardReentrantCall","inputs":[]},{"type":"error","name":"SafeERC20FailedOperation","inputs":[{"name":"token","type":"address","internalType":"address"}]}],"bytecode":{"object":"0x60a0346200026757601f6200184538819003918201601f191683019291906001600160401b038411838510176200026b578160809284926040968752833981010312620002675762000051816200027f565b9062000060602082016200027f565b60606200006f8584016200027f565b9201519061ffff8216908183036200026757331562000250575f549060018060a01b03908160018060a01b03199733898616175f55895194823391167f8be0079c531659141344cd1fd0a4f28419497f9722a3daafe3b4186f6b6457e05f80a360017f9b779b17422d0df92223018b32b4d1fa46e071723d6817e2486d003becc55f0055169283156200022157508116948515620001ed5716918215620001b9576103e8106200018a5760805260025493600154161760015561ffff60a01b9060a01b169160018060b01b0319161717600255516115b09081620002958239608051818181610166015281816103bc0152818161093901528181610cca01528181610e1001528181610ed301528181610fa4015261110d0152f35b855162461bcd60e51b8152602060048201526008602482015267656467653e31302560c01b6044820152606490fd5b865162461bcd60e51b815260206004820152600d60248201526c3d32b937903932b9b7b63b32b960991b6044820152606490fd5b875162461bcd60e51b815260206004820152600d60248201526c7a65726f20747265617375727960981b6044820152606490fd5b62461bcd60e51b815260206004820152600a6024820152693d32b937903a37b5b2b760b11b6044820152606490fd5b8551631e4fbdf760e01b81525f6004820152602490fd5b5f80fd5b634e487b7160e01b5f52604160045260245ffd5b51906001600160a01b0382168203620002675756fe6080604090808252600480361015610015575f80fd5b5f3560e01c9182629984211461115d5750816304cbbf8b146110f0578163096b4254146110c8578163150417be146110a157816322af00fa146110245781632d22ed1214610f775781633a10349b14610ef95781633e701d5a14610ea557816350d6756c14610b48578163568ae2a314610b2557816358fd6f15146108b2578163607caf831461089657816361d027b31461086e578163715018a6146108175781637406260e146107785781637494e70f146106c057816382944e2d146106a357816388baa6a01461053d5781638da5cb5b146105165781639838fd861461048e578163a416f5ab14610470578163afb88cda146102f9578163e7d36428146102ab578163eacdc5ff1461028d578163f0f442601461023f578163f2fde38b146101b5578163f522ad1114610199575063fc0c546a14610153575f80fd5b34610195575f36600319011261019557517f00000000000000000000000000000000000000000000000000000000000000006001600160a01b03168152602090f35b5f80fd5b8234610195575f36600319011261019557602091549051908152f35b8234610195576020366003190112610195576001600160a01b03823581811693919290849003610195576101e7611357565b83156102295750505f54826001600160601b0360a01b8216175f55167f8be0079c531659141344cd1fd0a4f28419497f9722a3daafe3b4186f6b6457e05f80a3005b905f6024925191631e4fbdf760e01b8352820152fd5b3461019557602036600319011261019557356001600160a01b038116908190036101955761026b611357565b61027681151561129e565b6001600160601b0360a01b60025416176002555f80f35b8234610195575f366003190112610195576020906005549051908152f35b3461019557602036600319011261019557356001600160a01b03811690819003610195576102d7611357565b6102e281151561129e565b6001600160601b0360a01b60015416176001555f80f35b90503461019557602080600319360112610195578135916103186113e1565b825f5260078252835f209061033760018060a01b038354163314611234565b600282019081549061034e60ff83891c16156111b4565b855f5260088552865f20541561043d57855f5260088552865f20546202a300810180911161042a5742106103fc575060ff60401b1916600160401b17905560010180547f833077ddb560efc217319d58c7cbb7822774657ca007c9e9acc438ddfedfa7279291906103e090337f0000000000000000000000000000000000000000000000000000000000000000611382565b5493519384523393a360015f8051602061155b83398151915255005b865162461bcd60e51b815290810185905260086024820152670eec2d2e8406870d60c31b6044820152606490fd5b601182634e487b7160e01b5f525260245ffd5b865162461bcd60e51b8152908101859052600d60248201526c1b9bdd081c995c5d595cdd1959609a1b6044820152606490fd5b8234610195575f366003190112610195576020906003549051908152f35b82346101955760203660031901126101955760207fae3caf926eae93c6f19b0836d417f800c2bfa145c6a5c27d8420c405b56fa968918335906104e660018060a01b0380600154163314908115610509575b50611269565b816104f2600554611226565b95866005555560ff196006541660065551908152a2005b90505f54163314876104e0565b8234610195575f366003190112610195575f5490516001600160a01b039091168152602090f35b8234610195576020806003193601126101955760015483359061057490336001600160a01b03918216149081156106965750611269565b6006549360ff851661066e57835182848201528381528481019080821067ffffffffffffffff83111761065b579080859187528251925f935b808510610644575f93945081018389820152039060025afa1561063a575f5181540361060c575060017f8586721942da8353acca3de00c74b7c93b7a07d097d94e8d86a5fa74ea40f804939460ff1916176006556005549351908152a2005b835162461bcd60e51b81529081018390526008602482015267189859081cd9595960c21b6044820152606490fd5b83513d5f823e3d90fd5b81850180850151908a0152929093019286926105ad565b604183634e487b7160e01b5f525260245ffd5b9050606492519162461bcd60e51b8352818301526024820152631d5cd95960e21b6044820152fd5b90505f54163314866104e0565b8234610195575f36600319011261019557602090516202a3008152f35b823461019557602036600319011261019557813591825f52600760205261070660ff6002845f206106fb60018060a01b038254163314611234565b0154841c16156111b4565b825f526008602052815f205461074c5750815f52600860205242905f205533907f2b56a12909e6b86818b7507ebcd7a7fdb9738b2b0ce52bb389035dbd6f99ca835f80a3005b6020606492519162461bcd60e51b8352820152600760248201526670656e64696e6760c81b6044820152fd5b9050346101955760203660031901126101955780355f526007602052815f209060018060a01b03825416156107ef57602083620f42406107e760026107cf8760018101549061ffff938491015460301c16906111eb565b906107e08160025460a01c16611212565b16906111eb565b049051908152f35b606490602084519162461bcd60e51b83528201526002602482015261373360f11b6044820152fd5b34610195575f3660031901126101955761082f611357565b5f80546001600160a01b0319811682556001600160a01b03167f8be0079c531659141344cd1fd0a4f28419497f9722a3daafe3b4186f6b6457e08280a3005b8234610195575f3660031901126101955760025490516001600160a01b039091168152602090f35b8234610195575f36600319011261019557602090516103e88152f35b9050346101955760803660031901126101955780359163ffffffff928381168091036101955760243561ffff8082168092036101955760443590811680910361019557606435916109016113e1565b8215610af7576101f4811015610aca57606582101580610abe575b15610a905761092c600354611226565b958660035561095d8430337f00000000000000000000000000000000000000000000000000000000000000006112ce565b85519060e082019082821067ffffffffffffffff831117610a7d57508760209960039289523384528a840190878252898501918983526060860191878352608087019089825260a08801925f845260c08901964288525f528f600790528d5f209860018060a01b039051166001600160601b0360a01b8a54161789555160018901556002880194511668ff00000000000000008d67ffff00000000000065ffff000000008854975160201b16945160301b1694511515901b169368ffffffffffffffffff191617171717905551910155845193845286840152838301526060820152827f87dcfdf5db4fbb85e6bde5cf543d732d7f15f239b7ae54ba34239f15411646c960803393a360015f8051602061155b8339815191525551908152f35b604190634e487b7160e01b5f525260245ffd5b845162461bcd60e51b8152602081880152600860248201526736bab63a1027a7a160c11b6044820152606490fd5b506107d082111561091c565b845162461bcd60e51b815260208188015260076024820152663937bb9027a7a160c91b6044820152606490fd5b845162461bcd60e51b815260208188015260086024820152670616d6f756e743d360c41b6044820152606490fd5b8234610195575f3660031901126101955760209060ff6006541690519015158152f35b905034610195576060366003190112610195578035602492833592831515908185036101955760443567ffffffffffffffff8082116101955736602383011215610195578183013591818311610195573689848301011161019557610bab6113e1565b865f5260209760078952865f209260018060a01b03948585541615610e77579088918b8d6002880196610be560ff895480981c16156111b4565b8c519283018e815260f88d901b848f015230606090811b604186015260358552840195861184871017610e65578f929486948f610c79975f95608095610c829b869452845190207f19457468657265756d205369676e6564204d6573736167653a0a3332000000008852601c52610c69603c882098601f19601f860116018a61117e565b8289520184830137010152611410565b9092919261144a565b858060015416911603610e395760ff60401b1916600160401b1782555f9015610dd85750610cc6620f4240916107cf600185015461ffff80935460301c16906111eb565b04927f00000000000000000000000000000000000000000000000000000000000000009883898b838a51809481936370a0823160e01b83523089840152165afa908115610dce579086915f91610d9d575b5010610d70575050610d51837fd1a7f8e02608013b9bd7679e3e05ad532e9c83829a935961f6eb37606a2525859798998484541690611382565b5416958351928352820152a360015f8051602061155b83398151915255005b865162461bcd60e51b8152918201899052600890820152676c6f772062616e6b60c01b6044820152606490fd5b8092508b8092503d8311610dc7575b610db6818361117e565b81010312610195578590515f610d17565b503d610dac565b88513d5f823e3d90fd5b9350507fd1a7f8e02608013b9bd7679e3e05ad532e9c83829a935961f6eb37606a25258595969750610e3482600254166001830154907f0000000000000000000000000000000000000000000000000000000000000000611382565b610d51565b875162461bcd60e51b81528087018b90526007818d0152666261642073696760c81b6044820152606490fd5b8260418d634e487b7160e01b5f52525ffd5b885162461bcd60e51b81528088018c90526009818e0152681b9bdd08199bdd5b9960ba1b6044820152606490fd5b3461019557602036600319011261019557610ef790610ec2611357565b6002549035906001600160a01b03167f0000000000000000000000000000000000000000000000000000000000000000611382565b005b9050346101955760203660031901126101955780359161ffff8316808403610195576103e890610f27611357565b11610f49576002805461ffff60a01b191660a085901b61ffff60a01b16179055005b906020606492519162461bcd60e51b83528201526008602482015267656467653e31302560c01b6044820152fd5b8234610195575f3660031901126101955780516370a0823160e01b815230928101929092526020826024817f00000000000000000000000000000000000000000000000000000000000000006001600160a01b03165afa90811561101b575f91610fe6575b6020925051908152f35b90506020823d602011611013575b816110016020938361117e565b81010312610195576020915190610fdc565b3d9150610ff4565b513d5f823e3d90fd5b82346101955760203660031901126101955760e091355f526007602052805f209060ff60018060a01b0383541692600181015492600282015491600361ffff910154948251968752602087015263ffffffff831682870152808360201c1660608701528260301c1660808601521c16151560a083015260c0820152f35b823461019557602036600319011261019557602091355f5260088252805f20549051908152f35b8234610195575f3660031901126101955760015490516001600160a01b039091168152602090f35b9050346101955760203660031901126101955735906111318230337f00000000000000000000000000000000000000000000000000000000000000006112ce565b519081527f2d4fdc6f1991164156fe19d5c495895af017187803b56bddd67de1bd212fafee60203392a2005b34610195575f3660031901126101955760209061ffff60025460a01c168152f35b90601f8019910116810190811067ffffffffffffffff8211176111a057604052565b634e487b7160e01b5f52604160045260245ffd5b156111bb57565b60405162461bcd60e51b81526020600482015260086024820152671c995cdbdb1d995960c21b6044820152606490fd5b818102929181159184041417156111fe57565b634e487b7160e01b5f52601160045260245ffd5b9061ffff809216612710039182116111fe57565b5f1981146111fe5760010190565b1561123b57565b60405162461bcd60e51b815260206004820152600660248201526510b7bbb732b960d11b6044820152606490fd5b1561127057565b60405162461bcd60e51b81526020600482015260066024820152650eadcc2eae8d60d31b6044820152606490fd5b156112a557565b60405162461bcd60e51b81526020600482015260016024820152600360fc1b6044820152606490fd5b6040516323b872dd60e01b5f9081526001600160a01b03938416600452938316602452604494909452909160209060648180855af160015f5114811615611338575b836040525f6060521561132257505050565b635274afe760e01b835216600482015260249150fd5b600181151661134e57813b15153d151616611310565b833d5f823e3d90fd5b5f546001600160a01b0316330361136a57565b60405163118cdaa760e01b8152336004820152602490fd5b60405163a9059cbb60e01b5f9081526001600160a01b039384166004526024949094529260209060448180855af160015f51148116156113cb575b836040521561132257505050565b600181151661134e57813b15153d1516166113bd565b5f8051602061155b83398151915260028154146113fe5760029055565b604051633ee5aeb560e01b8152600490fd5b8151919060418303611440576114399250602082015190606060408401519301515f1a906114cd565b9192909190565b50505f9160029190565b60048110156114b9578061145c575050565b600181036114765760405163f645eedf60e01b8152600490fd5b600281036114975760405163fce698f760e01b815260048101839052602490fd5b6003146114a15750565b602490604051906335e2f38360e21b82526004820152fd5b634e487b7160e01b5f52602160045260245ffd5b91907f7fffffffffffffffffffffffffffffff5d576e7357a4501ddfe92f46681b20a0841161154f579160209360809260ff5f9560405194855216868401526040830152606082015282805260015afa15611544575f516001600160a01b0381161561153a57905f905f90565b505f906001905f90565b6040513d5f823e3d90fd5b5050505f916003919056fe9b779b17422d0df92223018b32b4d1fa46e071723d6817e2486d003becc55f00a2646970667358221220f71df6fd410c948d1603e134d1febea5b8f2abaf9bde8ae966b9d77a20ee7fe364736f6c63430008180033","linkReferences":{}},"methodIdentifiers":{"EMERGENCY_DELAY()":"82944e2d","MAX_HOUSE_EDGE()":"607caf83","betCounter()":"a416f5ab","bets(uint256)":"22af00fa","commitGridSeed(bytes32)":"9838fd86","commitmentUsed()":"568ae2a3","currentCommitment()":"f522ad11","currentEpochId()":"eacdc5ff","executeEmergencyExit(uint256)":"afb88cda","exitRequestedAt(uint256)":"150417be","expectedPayout(uint256)":"7406260e","fundHouseBank(uint256)":"04cbbf8b","houseBankBalance()":"2d22ed12","houseEdgeBps()":"00998421","owner()":"8da5cb5b","placeBet(uint32,uint16,uint16,uint256)":"58fd6f15","renounceOwnership()":"715018a6","requestEmergencyExit(uint256)":"7494e70f","resolveBet(uint256,bool,bytes)":"50d6756c","resolverSigner()":"096b4254","revealGridSeed(bytes32)":"88baa6a0","setHouseEdge(uint16)":"3a10349b","setResolverSigner(address)":"e7d36428","setTreasury(address)":"f0f44260","token()":"fc0c546a","transferOwnership(address)":"f2fde38b","treasury()":"61d027b3","withdrawHouseBank(uint256)":"3e701d5a"},"id":51}