{"abi":[{"type":"constructor","inputs":[{"name":"_token","type":"address","internalType":"address"}],"stateMutability":"nonpayable"},{"type":"function","name":"claim","inputs":[],"outputs":[],"stateMutability":"nonpayable"},{"type":"function","name":"claimAmount","inputs":[],"outputs":[{"name":"","type":"uint256","internalType":"uint256"}],"stateMutability":"view"},{"type":"function","name":"cooldown","inputs":[],"outputs":[{"name":"","type":"uint256","internalType":"uint256"}],"stateMutability":"view"},{"type":"function","name":"lastClaim","inputs":[{"name":"","type":"address","internalType":"address"}],"outputs":[{"name":"","type":"uint256","internalType":"uint256"}],"stateMutability":"view"},{"type":"function","name":"owner","inputs":[],"outputs":[{"name":"","type":"address","internalType":"address"}],"stateMutability":"view"},{"type":"function","name":"renounceOwnership","inputs":[],"outputs":[],"stateMutability":"nonpayable"},{"type":"function","name":"setClaimAmount","inputs":[{"name":"_amount","type":"uint256","internalType":"uint256"}],"outputs":[],"stateMutability":"nonpayable"},{"type":"function","name":"setCooldown","inputs":[{"name":"_cooldown","type":"uint256","internalType":"uint256"}],"outputs":[],"stateMutability":"nonpayable"},{"type":"function","name":"timeUntilNextClaim","inputs":[{"name":"user","type":"address","internalType":"address"}],"outputs":[{"name":"","type":"uint256","internalType":"uint256"}],"stateMutability":"view"},{"type":"function","name":"token","inputs":[],"outputs":[{"name":"","type":"address","internalType":"contract SprmToken"}],"stateMutability":"view"},{"type":"function","name":"transferOwnership","inputs":[{"name":"newOwner","type":"address","internalType":"address"}],"outputs":[],"stateMutability":"nonpayable"},{"type":"event","name":"ClaimAmountUpdated","inputs":[{"name":"oldAmount","type":"uint256","indexed":false,"internalType":"uint256"},{"name":"newAmount","type":"uint256","indexed":false,"internalType":"uint256"}],"anonymous":false},{"type":"event","name":"Claimed","inputs":[{"name":"user","type":"address","indexed":true,"internalType":"address"},{"name":"amount","type":"uint256","indexed":false,"internalType":"uint256"}],"anonymous":false},{"type":"event","name":"CooldownUpdated","inputs":[{"name":"oldCooldown","type":"uint256","indexed":false,"internalType":"uint256"},{"name":"newCooldown","type":"uint256","indexed":false,"internalType":"uint256"}],"anonymous":false},{"type":"event","name":"OwnershipTransferred","inputs":[{"name":"previousOwner","type":"address","indexed":true,"internalType":"address"},{"name":"newOwner","type":"address","indexed":true,"internalType":"address"}],"anonymous":false},{"type":"error","name":"OwnableInvalidOwner","inputs":[{"name":"owner","type":"address","internalType":"address"}]},{"type":"error","name":"OwnableUnauthorizedAccount","inputs":[{"name":"account","type":"address","internalType":"address"}]}],"bytecode":{"object":"0x60a0346100de57601f61065f38819003918201601f19168301916001600160401b038311848410176100e2578084926020946040528339810103126100de57516001600160a01b0390818116908190036100de5733156100c6575f543360018060a01b03198216175f55604051923391167f8be0079c531659141344cd1fd0a4f28419497f9722a3daafe3b4186f6b6457e05f80a36802b5e3af16b18800006001556201518060025560805261056890816100f7823960805181818160ac015261039b0152f35b604051631e4fbdf760e01b81525f6004820152602490fd5b5f80fd5b634e487b7160e01b5f52604160045260245ffdfe60406080815260049081361015610014575f80fd5b5f915f3560e01c9081634e71d92d146103555781634fc3f41a146103015781635c16e15e146102c7578163715018a61461026e578163787a08a61461024f578163830953ab146102305781638da5cb5b1461020857816392d82dbe146101cd578163b1c7ef0c14610179578163f2fde38b146100df575063fc0c546a14610099575f80fd5b346100db57816003193601126100db57517f00000000000000000000000000000000000000000000000000000000000000006001600160a01b03168152602090f35b5080fd5b91905034610175576020366003190112610175576001600160a01b0382358181169391929084900361017157610113610507565b831561015b5750505f54826bffffffffffffffffffffffff60a01b8216175f55167f8be0079c531659141344cd1fd0a4f28419497f9722a3daafe3b4186f6b6457e05f80a380f35b51631e4fbdf760e01b8152908101849052602490fd5b8480fd5b8280fd5b905034610175576020366003190112610175577fc22e16deec6f587d0a1aad7275c1621e6c24431fea14dd71e8f3243e9fbc5ca39035916101b8610507565b6001548151908152836020820152a160015580f35b9050346101755760203660031901126101755735916001600160a01b038316830361020557506101fe6020926104ca565b9051908152f35b80fd5b5050346100db57816003193601126100db57905490516001600160a01b039091168152602090f35b5050346100db57816003193601126100db576020906001549051908152f35b5050346100db57816003193601126100db576020906002549051908152f35b8334610205578060031936011261020557610287610507565b5f80546001600160a01b0319811682556001600160a01b03167f8be0079c531659141344cd1fd0a4f28419497f9722a3daafe3b4186f6b6457e08280a380f35b90503461017557602036600319011261017557356001600160a01b0381169081900361017557828291602094526003845220549051908152f35b905034610175576020366003190112610175577f5953b565c074c2cce1866b4e69c9efc4908556bb6fca70f735907c94d9405515903591610340610507565b6002548151908152836020820152a160025580f35b905034610463575f36600319011261046357335f52600360205261037f825f2054600254906104a9565b421061046757335f52600360205242825f205560018060a01b037f00000000000000000000000000000000000000000000000000000000000000001690600154823b15610463575f9260448492865195869384926340c10f1960e01b8452338885015260248401525af1801561045957610427575b505060015490519081527fd8138f8a3f377c5259ca548e70e4c2de94f129f5a11036a15b69513cba2b426a60203392a280f35b9091925067ffffffffffffffff8211610446575081525f905f806103f4565b604190634e487b7160e01b5f525260245ffd5b83513d5f823e3d90fd5b5f80fd5b6020606492519162461bcd60e51b8352820152601c60248201527f4661756365743a20636f6f6c646f776e206e6f7420656c6170736564000000006044820152fd5b919082018092116104b657565b634e487b7160e01b5f52601160045260245ffd5b6001600160a01b03165f908152600360205260409020546002546104ed916104a9565b80421015610502574281039081116104b65790565b505f90565b5f546001600160a01b0316330361051a57565b60405163118cdaa760e01b8152336004820152602490fdfea26469706673582212204b0241352342835dcedee3ae52554910e41e387c46b3c09b28e921cfdcddf35064736f6c63430008180033","linkReferences":{}},"methodIdentifiers":{"claim()":"4e71d92d","claimAmount()":"830953ab","cooldown()":"787a08a6","lastClaim(address)":"5c16e15e","owner()":"8da5cb5b","renounceOwnership()":"715018a6","setClaimAmount(uint256)":"b1c7ef0c","setCooldown(uint256)":"4fc3f41a","timeUntilNextClaim(address)":"92d82dbe","token()":"fc0c546a","transferOwnership(address)":"f2fde38b"},"id":49}