{"abi":[{"type":"constructor","inputs":[{"name":"_token","type":"address","internalType":"address"},{"name":"_treasury","type":"address","internalType":"address"},{"name":"_resolverSigner","type":"address","internalType":"address"},{"name":"_houseEdgeBps","type":"uint16","internalType":"uint16"},{"name":"_vrfCoordinator","type":"address","internalType":"address"},{"name":"_vrfKeyHash","type":"bytes32","internalType":"bytes32"},{"name":"_vrfSubscriptionId","type":"uint256","internalType":"uint256"}],"stateMutability":"nonpayable"},{"type":"function","name":"EMERGENCY_DELAY","inputs":[],"outputs":[{"name":"","type":"uint256","internalType":"uint256"}],"stateMutability":"view"},{"type":"function","name":"MAX_HOUSE_EDGE","inputs":[],"outputs":[{"name":"","type":"uint16","internalType":"uint16"}],"stateMutability":"view"},{"type":"function","name":"acceptOwnership","inputs":[],"outputs":[],"stateMutability":"nonpayable"},{"type":"function","name":"betCounter","inputs":[],"outputs":[{"name":"","type":"uint256","internalType":"uint256"}],"stateMutability":"view"},{"type":"function","name":"bets","inputs":[{"name":"","type":"uint256","internalType":"uint256"}],"outputs":[{"name":"player","type":"address","internalType":"address"},{"name":"amount","type":"uint256","internalType":"uint256"},{"name":"boxX","type":"uint32","internalType":"uint32"},{"name":"boxRow","type":"uint16","internalType":"uint16"},{"name":"multNum","type":"uint16","internalType":"uint16"},{"name":"resolved","type":"bool","internalType":"bool"},{"name":"placedAt","type":"uint256","internalType":"uint256"}],"stateMutability":"view"},{"type":"function","name":"currentEpochId","inputs":[],"outputs":[{"name":"","type":"uint256","internalType":"uint256"}],"stateMutability":"view"},{"type":"function","name":"executeEmergencyExit","inputs":[{"name":"betId","type":"uint256","internalType":"uint256"}],"outputs":[],"stateMutability":"nonpayable"},{"type":"function","name":"exitRequestedAt","inputs":[{"name":"","type":"uint256","internalType":"uint256"}],"outputs":[{"name":"","type":"uint256","internalType":"uint256"}],"stateMutability":"view"},{"type":"function","name":"expectedPayout","inputs":[{"name":"betId","type":"uint256","internalType":"uint256"}],"outputs":[{"name":"","type":"uint256","internalType":"uint256"}],"stateMutability":"view"},{"type":"function","name":"fundHouseBank","inputs":[{"name":"amount","type":"uint256","internalType":"uint256"}],"outputs":[],"stateMutability":"nonpayable"},{"type":"function","name":"houseBankBalance","inputs":[],"outputs":[{"name":"","type":"uint256","internalType":"uint256"}],"stateMutability":"view"},{"type":"function","name":"houseEdgeBps","inputs":[],"outputs":[{"name":"","type":"uint16","internalType":"uint16"}],"stateMutability":"view"},{"type":"function","name":"isVrfPending","inputs":[],"outputs":[{"name":"","type":"bool","internalType":"bool"}],"stateMutability":"view"},{"type":"function","name":"owner","inputs":[],"outputs":[{"name":"","type":"address","internalType":"address"}],"stateMutability":"view"},{"type":"function","name":"pendingVrfEpochId","inputs":[],"outputs":[{"name":"","type":"uint256","internalType":"uint256"}],"stateMutability":"view"},{"type":"function","name":"pendingVrfRequestId","inputs":[],"outputs":[{"name":"","type":"uint256","internalType":"uint256"}],"stateMutability":"view"},{"type":"function","name":"placeBet","inputs":[{"name":"boxX","type":"uint32","internalType":"uint32"},{"name":"boxRow","type":"uint16","internalType":"uint16"},{"name":"multNum","type":"uint16","internalType":"uint16"},{"name":"amount","type":"uint256","internalType":"uint256"}],"outputs":[{"name":"betId","type":"uint256","internalType":"uint256"}],"stateMutability":"nonpayable"},{"type":"function","name":"rawFulfillRandomWords","inputs":[{"name":"requestId","type":"uint256","internalType":"uint256"},{"name":"randomWords","type":"uint256[]","internalType":"uint256[]"}],"outputs":[],"stateMutability":"nonpayable"},{"type":"function","name":"requestEmergencyExit","inputs":[{"name":"betId","type":"uint256","internalType":"uint256"}],"outputs":[],"stateMutability":"nonpayable"},{"type":"function","name":"requestVrf","inputs":[],"outputs":[{"name":"requestId","type":"uint256","internalType":"uint256"}],"stateMutability":"nonpayable"},{"type":"function","name":"resolveBet","inputs":[{"name":"betId","type":"uint256","internalType":"uint256"},{"name":"won","type":"bool","internalType":"bool"},{"name":"serverSig","type":"bytes","internalType":"bytes"}],"outputs":[],"stateMutability":"nonpayable"},{"type":"function","name":"resolverSigner","inputs":[],"outputs":[{"name":"","type":"address","internalType":"address"}],"stateMutability":"view"},{"type":"function","name":"s_vrfCoordinator","inputs":[],"outputs":[{"name":"","type":"address","internalType":"contract IVRFCoordinatorV2Plus"}],"stateMutability":"view"},{"type":"function","name":"setCoordinator","inputs":[{"name":"_vrfCoordinator","type":"address","internalType":"address"}],"outputs":[],"stateMutability":"nonpayable"},{"type":"function","name":"setHouseEdge","inputs":[{"name":"_houseEdgeBps","type":"uint16","internalType":"uint16"}],"outputs":[],"stateMutability":"nonpayable"},{"type":"function","name":"setResolverSigner","inputs":[{"name":"_resolverSigner","type":"address","internalType":"address"}],"outputs":[],"stateMutability":"nonpayable"},{"type":"function","name":"setTreasury","inputs":[{"name":"_treasury","type":"address","internalType":"address"}],"outputs":[],"stateMutability":"nonpayable"},{"type":"function","name":"token","inputs":[],"outputs":[{"name":"","type":"address","internalType":"contract IERC20"}],"stateMutability":"view"},{"type":"function","name":"transferOwnership","inputs":[{"name":"to","type":"address","internalType":"address"}],"outputs":[],"stateMutability":"nonpayable"},{"type":"function","name":"treasury","inputs":[],"outputs":[{"name":"","type":"address","internalType":"address"}],"stateMutability":"view"},{"type":"function","name":"vrfKeyHash","inputs":[],"outputs":[{"name":"","type":"bytes32","internalType":"bytes32"}],"stateMutability":"view"},{"type":"function","name":"vrfRequestEpoch","inputs":[{"name":"","type":"uint256","internalType":"uint256"}],"outputs":[{"name":"","type":"uint256","internalType":"uint256"}],"stateMutability":"view"},{"type":"function","name":"vrfSubscriptionId","inputs":[],"outputs":[{"name":"","type":"uint256","internalType":"uint256"}],"stateMutability":"view"},{"type":"function","name":"withdrawHouseBank","inputs":[{"name":"amount","type":"uint256","internalType":"uint256"}],"outputs":[],"stateMutability":"nonpayable"},{"type":"event","name":"BetPlaced","inputs":[{"name":"betId","type":"uint256","indexed":true,"internalType":"uint256"},{"name":"player","type":"address","indexed":true,"internalType":"address"},{"name":"boxX","type":"uint32","indexed":false,"internalType":"uint32"},{"name":"boxRow","type":"uint16","indexed":false,"internalType":"uint16"},{"name":"multNum","type":"uint16","indexed":false,"internalType":"uint16"},{"name":"amount","type":"uint256","indexed":false,"internalType":"uint256"}],"anonymous":false},{"type":"event","name":"BetResolved","inputs":[{"name":"betId","type":"uint256","indexed":true,"internalType":"uint256"},{"name":"player","type":"address","indexed":true,"internalType":"address"},{"name":"won","type":"bool","indexed":false,"internalType":"bool"},{"name":"payout","type":"uint256","indexed":false,"internalType":"uint256"}],"anonymous":false},{"type":"event","name":"CoordinatorSet","inputs":[{"name":"vrfCoordinator","type":"address","indexed":false,"internalType":"address"}],"anonymous":false},{"type":"event","name":"EmergencyExitExecuted","inputs":[{"name":"betId","type":"uint256","indexed":true,"internalType":"uint256"},{"name":"player","type":"address","indexed":true,"internalType":"address"},{"name":"amount","type":"uint256","indexed":false,"internalType":"uint256"}],"anonymous":false},{"type":"event","name":"EmergencyExitRequested","inputs":[{"name":"betId","type":"uint256","indexed":true,"internalType":"uint256"},{"name":"player","type":"address","indexed":true,"internalType":"address"}],"anonymous":false},{"type":"event","name":"HouseBankFunded","inputs":[{"name":"funder","type":"address","indexed":true,"internalType":"address"},{"name":"amount","type":"uint256","indexed":false,"internalType":"uint256"}],"anonymous":false},{"type":"event","name":"OwnershipTransferRequested","inputs":[{"name":"from","type":"address","indexed":true,"internalType":"address"},{"name":"to","type":"address","indexed":true,"internalType":"address"}],"anonymous":false},{"type":"event","name":"OwnershipTransferred","inputs":[{"name":"from","type":"address","indexed":true,"internalType":"address"},{"name":"to","type":"address","indexed":true,"internalType":"address"}],"anonymous":false},{"type":"event","name":"VrfFulfilled","inputs":[{"name":"epochId","type":"uint256","indexed":true,"internalType":"uint256"},{"name":"requestId","type":"uint256","indexed":true,"internalType":"uint256"},{"name":"vrfResult","type":"bytes32","indexed":false,"internalType":"bytes32"}],"anonymous":false},{"type":"event","name":"VrfRequested","inputs":[{"name":"epochId","type":"uint256","indexed":true,"internalType":"uint256"},{"name":"requestId","type":"uint256","indexed":true,"internalType":"uint256"}],"anonymous":false},{"type":"error","name":"ECDSAInvalidSignature","inputs":[]},{"type":"error","name":"ECDSAInvalidSignatureLength","inputs":[{"name":"length","type":"uint256","internalType":"uint256"}]},{"type":"error","name":"ECDSAInvalidSignatureS","inputs":[{"name":"s","type":"bytes32","internalType":"bytes32"}]},{"type":"error","name":"OnlyCoordinatorCanFulfill","inputs":[{"name":"have","type":"address","internalType":"address"},{"name":"want","type":"address","internalType":"address"}]},{"type":"error","name":"OnlyOwnerOrCoordinator","inputs":[{"name":"have","type":"address","internalType":"address"},{"name":"owner","type":"address","internalType":"address"},{"name":"coordinator","type":"address","internalType":"address"}]},{"type":"error","name":"ReentrancyGuardReentrantCall","inputs":[]},{"type":"error","name":"SafeERC20FailedOperation","inputs":[{"name":"token","type":"address","internalType":"address"}]},{"type":"error","name":"ZeroAddress","inputs":[]}],"bytecode":{"object":"0x60e034620002d757601f62001d4938819003918201601f191683019291906001600160401b03841183851017620002db578160e09284926040968752833981010312620002d7576200005181620002ef565b9060209162000062838301620002ef565b6200006f858401620002ef565b9060608401519061ffff821690818303620002d7576200009260808701620002ef565b9660c060a088015197015197331562000293575f80546001600160a01b03199081163317909155966001600160a01b039182168015620002825790829189600254161760025560017f9b779b17422d0df92223018b32b4d1fa46e071723d6817e2486d003becc55f005516928315620002515781169586156200021d5716928315620001e9576103e810620001b9575060805260045493600354161760035561ffff60a01b9060a01b169160018060b01b031916171760045560a05260c05251611a4490816200030582396080518181816101a8015281816104480152818161096801528181610cff01528181610e59015281816111a3015281816112740152611507015260a051818181610f63015261156e015260c0518181816102f60152610f890152f35b60649089519062461bcd60e51b82526004820152600a60248201526965646765203e2031302560b01b6044820152fd5b895162461bcd60e51b815260048101839052600d60248201526c3d32b937903932b9b7b63b32b960991b6044820152606490fd5b8a5162461bcd60e51b815260048101849052600d60248201526c7a65726f20747265617375727960981b6044820152606490fd5b8a5162461bcd60e51b815260048101849052600a6024820152693d32b937903a37b5b2b760b11b6044820152606490fd5b8b5163d92e233d60e01b8152600490fd5b895162461bcd60e51b815260048101839052601860248201527f43616e6e6f7420736574206f776e657220746f207a65726f00000000000000006044820152606490fd5b5f80fd5b634e487b7160e01b5f52604160045260245ffd5b51906001600160a01b0382168203620002d75756fe6080604090808252600480361015610015575f80fd5b5f3560e01c9182629984211461159157508163041d443e1461155757816304cbbf8b146114ea57816306136cbc146114cc578163096b4254146114a4578163150417be1461147d5781631fe543e31461137157816322af00fa146112f45781632d22ed12146112475781633a10349b146111c95781633e701d5a1461117657816347555a3414610eb457816350d6756c14610b7457816358fd6f15146108e1578163607caf83146108c557816361d027b31461089e5781637406260e146108295781637494e70f1461076757816379ba5097146106bf57816382944e2d146106a2578163885feec41461067b5781638da5cb5b146106545781638ea981171461058e5781639eccacf614610566578163a30885fa14610548578163a416f5ab1461052a578163ab31ebf01461050a578163afb88cda14610385578163e7d3642814610337578163eacdc5ff14610319578163ed647d21146102df578163f0f4426014610296578163f2fde38b146101db575063fc0c546a14610195575f80fd5b346101d7575f3660031901126101d757517f00000000000000000000000000000000000000000000000000000000000000006001600160a01b03168152602090f35b5f80fd5b82346101d75760203660031901126101d7576001600160a01b038235818116939192908490036101d75761020d6117c5565b338414610253575050816001600160601b0360a01b60015416176001555f54167fed8889f560326eb138920d842192f0eb3dd22b4f139c87a2c57538e05bae12785f80a3005b906020606492519162461bcd60e51b8352820152601760248201527f43616e6e6f74207472616e7366657220746f2073656c660000000000000000006044820152fd5b346101d75760203660031901126101d75780356001600160a01b038116908190036101d7576102c36117c5565b6102ce811515611701565b81546001600160a01b031916179055005b82346101d7575f3660031901126101d757602090517f00000000000000000000000000000000000000000000000000000000000000008152f35b82346101d7575f3660031901126101d7576020906006549051908152f35b346101d75760203660031901126101d757356001600160a01b038116908190036101d7576103636117c5565b61036e811515611701565b6001600160601b0360a01b60035416176003555f80f35b9050346101d7576020806003193601126101d7578135916103a4611875565b825f52600a8252835f20906103c360018060a01b0383541633146116c6565b60028201908154906103da60ff83891c1615611660565b855f52600b8552865f2054156104d257855f52600b8552865f20546202a30081018091116104bf574210610488575060ff60401b1916600160401b17905560010180547f833077ddb560efc217319d58c7cbb7822774657ca007c9e9acc438ddfedfa72792919061046c90337f0000000000000000000000000000000000000000000000000000000000000000611816565b5493519384523393a360015f805160206119ef83398151915255005b865162461bcd60e51b8152908101859052601160248201527019195b185e481b9bdd08195b185c1cd959607a1b6044820152606490fd5b601182634e487b7160e01b5f525260245ffd5b865162461bcd60e51b81529081018590526012602482015271195e1a5d081b9bdd081c995c5d595cdd195960721b6044820152606490fd5b82346101d7575f3660031901126101d75760209060075415159051908152f35b82346101d7575f3660031901126101d7576020906005549051908152f35b82346101d7575f3660031901126101d7576020906007549051908152f35b82346101d7575f3660031901126101d75760025490516001600160a01b039091168152602090f35b82346101d75760203660031901126101d75781356001600160a01b0381811693918490036101d757805f5416908133141580610646575b61061f5750508215610611577fd1a6a14209a385a964d036e404cb5cfb71f4000cdb03c9366292430787261be660208484816001600160601b0360a01b600254161760025551908152a1005b905163d92e233d60e01b8152fd5b90606493916002541691519263061db9c160e01b8452339084015260248301526044820152fd5b5080600254163314156105c5565b82346101d7575f3660031901126101d7575f5490516001600160a01b039091168152602090f35b82346101d75760203660031901126101d757602091355f5260098252805f20549051908152f35b82346101d7575f3660031901126101d757602090516202a3008152f35b82346101d7575f3660031901126101d757600154916001600160a01b0391828416330361072b5750505f54916001600160601b0360a01b9033828516175f55166001553391167f8be0079c531659141344cd1fd0a4f28419497f9722a3daafe3b4186f6b6457e05f80a3005b906020606492519162461bcd60e51b8352820152601660248201527526bab9ba10313290383937b837b9b2b21037bbb732b960511b6044820152fd5b82346101d75760203660031901126101d757813591825f52600a6020526107ad60ff6002845f206107a260018060a01b0382541633146116c6565b0154841c1615611660565b825f52600b602052815f20546107f35750815f52600b60205242905f205533907f2b56a12909e6b86818b7507ebcd7a7fdb9738b2b0ce52bb389035dbd6f99ca835f80a3005b6020606492519162461bcd60e51b83528201526011602482015270185b1c9958591e481c995c5d595cdd1959607a1b6044820152fd5b82346101d75760203660031901126101d757620f424061089683602094355f52600a8552600261088f855f2061086960018060a01b038254161515611624565b610884600182015461ffff80958194015460301c169061169f565b935460a01c166116b2565b169061169f565b049051908152f35b82346101d7575f3660031901126101d757905490516001600160a01b039091168152602090f35b82346101d7575f3660031901126101d757602090516103e88152f35b9050346101d75760803660031901126101d75780359163ffffffff928381168091036101d75760243561ffff8082168092036101d7576044359081168091036101d75760643591610930611875565b8215610b44576101f4811015610b0e57606582101580610b02575b15610abf5761095b600554611602565b958660055561098c8430337f000000000000000000000000000000000000000000000000000000000000000061173c565b85519060e082019082821067ffffffffffffffff831117610aac57508760209960039289523384528a840190878252898501918983526060860191878352608087019089825260a08801925f845260c08901964288525f528f600a90528d5f209860018060a01b039051166001600160601b0360a01b8a54161789555160018901556002880194511668ff00000000000000008d67ffff00000000000065ffff000000008854975160201b16945160301b1694511515901b169368ffffffffffffffffff191617171717905551910155845193845286840152838301526060820152827f87dcfdf5db4fbb85e6bde5cf543d732d7f15f239b7ae54ba34239f15411646c960803393a360015f805160206119ef8339815191525551908152f35b604190634e487b7160e01b5f525260245ffd5b845162461bcd60e51b8152602081880152601760248201527f6d756c7469706c696572206f7574206f662072616e67650000000000000000006044820152606490fd5b506107d082111561094b565b845162461bcd60e51b8152602081880152601060248201526f726f77206f7574206f662072616e676560801b6044820152606490fd5b845162461bcd60e51b8152602081880152600a6024820152690616d6f756e74203d20360b41b6044820152606490fd5b9050346101d75760603660031901126101d7578035602492833592831515908185036101d7576044359467ffffffffffffffff908187116101d757366023880112156101d757868301359182116101d757368883890101116101d75785889185610ca7610c9e5f9b610be4611875565b858d528a60209d8e600a81528a8383209b8c9b610c0d60018060a01b039e8f9054161515611624565b60028d019b8c549a610c2460ff8d8a1c1615611660565b87519086820192835260f81b888201523060601b604182015260358152610c4a816115b0565b5190207f19457468657265756d205369676e6564204d6573736167653a0a3332000000008652601c52603c8520955196610c8d601f8401601f19168601896115e0565b8288520183870137840101526118a4565b909291926118de565b858060035416911603610e825760ff60401b1916600160401b1782555f9015610e225750610cfb620f424091610ceb600185015461ffff80935460301c169061169f565b9061088f81885460a01c166116b2565b04927f00000000000000000000000000000000000000000000000000000000000000009883898b838a51809481936370a0823160e01b83523089840152165afa908115610e18579086915f91610de7575b5010610da5575050610d86837fd1a7f8e02608013b9bd7679e3e05ad532e9c83829a935961f6eb37606a2525859798998484541690611816565b5416958351928352820152a360015f805160206119ef83398151915255005b865162461bcd60e51b81529182018990526017908201527f696e73756666696369656e7420686f7573652062616e6b0000000000000000006044820152606490fd5b8092508b8092503d8311610e11575b610e0081836115e0565b810103126101d7578590515f610d4c565b503d610df6565b88513d5f823e3d90fd5b937fd1a7f8e02608013b9bd7679e3e05ad532e9c83829a935961f6eb37606a25258597989950610e7d9150839054166001830154907f0000000000000000000000000000000000000000000000000000000000000000611816565b610d86565b875162461bcd60e51b81528087018b9052600d818d01526c626164207369676e617475726560981b6044820152606490fd5b82346101d7575f3660031901126101d7576003546001600160a01b03919082163314801561116a575b15611139576007546110f757610ef4600654611602565b9182600655600254169281519360209485810167ffffffffffffffff90828110828211176110e45785525f825284519163125fa26760e31b88840152511515602483015260248252610f45826115b0565b84519060c08201908111828210176110e457918794929185949287527f000000000000000000000000000000000000000000000000000000000000000081528481017f0000000000000000000000000000000000000000000000000000000000000000815261ffff888301600381526060840192620186a0845260808501946001865260a081019687528b519a8b99634d8e1c2f60e11b8b528a015251602489015251604488015251166064860152519063ffffffff8092166084860152511660a48401525160c060c48401528051908160e4850152845f5b8381106110cb575050505f8391826101049183838284010152601f801991011681010301925af19081156110c1575f91611094575b5080918160075583600855815f526009855283815f205551927f6bb6d9629c0d789662101058a2c5a7e71fbcae2a88dbf122d96bafca3e57b32a5f80a38152f35b90508381813d83116110ba575b6110ab81836115e0565b810103126101d7575184611053565b503d6110a1565b82513d5f823e3d90fd5b828101820151888201610104015287955086910161101e565b604185634e487b7160e01b5f525260245ffd5b5162461bcd60e51b8152602081840152601b60248201527f767266207265717565737420616c72656164792070656e64696e6700000000006044820152606490fd5b5162461bcd60e51b8152602081840152600c60248201526b1d5b985d5d1a1bdc9a5e995960a21b6044820152606490fd5b50815f54163314610edd565b346101d75760203660031901126101d7576111c7906111936117c5565b80549035906001600160a01b03167f0000000000000000000000000000000000000000000000000000000000000000611816565b005b82346101d75760203660031901126101d75781359061ffff82168083036101d7576103e8906111f66117c5565b116112185750815461ffff60a01b191660a09190911b61ffff60a01b16179055005b5162461bcd60e51b8152602081840152600a60248201526965646765203e2031302560b01b6044820152606490fd5b82346101d7575f3660031901126101d75780516370a0823160e01b815230928101929092526020826024817f00000000000000000000000000000000000000000000000000000000000000006001600160a01b03165afa9081156112eb575f916112b6575b6020925051908152f35b90506020823d6020116112e3575b816112d1602093836115e0565b810103126101d75760209151906112ac565b3d91506112c4565b513d5f823e3d90fd5b82346101d75760203660031901126101d75760e091355f52600a602052805f209060ff60018060a01b0383541692600181015492600282015491600361ffff910154948251968752602087015263ffffffff831682870152808360201c1660608701528260301c1660808601521c16151560a083015260c0820152f35b9050346101d757816003193601126101d75780359160249182359067ffffffffffffffff928383116101d757366023840112156101d75782820135948486116101d75736818760051b860101116101d7576002546001600160a01b0316338190036114625750865f526009602052815f20549515611450578151928160208501950135855260208452828401958487109087111761143f5750508390525190205f60075581527f3d975843e6bc4214658292b010ad6ce17125a3b29cf075e1e46b3492157f231b90602090a3005b604190634e487b7160e01b5f52525ffd5b634e487b7160e01b5f90815260328452fd5b9160449450519263073e64fd60e21b84523390840152820152fd5b82346101d75760203660031901126101d757602091355f52600b8252805f20549051908152f35b82346101d7575f3660031901126101d75760035490516001600160a01b039091168152602090f35b82346101d7575f3660031901126101d7576020906008549051908152f35b9050346101d75760203660031901126101d757359061152b8230337f000000000000000000000000000000000000000000000000000000000000000061173c565b519081527f2d4fdc6f1991164156fe19d5c495895af017187803b56bddd67de1bd212fafee60203392a2005b82346101d7575f3660031901126101d757602090517f00000000000000000000000000000000000000000000000000000000000000008152f35b346101d7575f3660031901126101d75761ffff6020925460a01c168152f35b6060810190811067ffffffffffffffff8211176115cc57604052565b634e487b7160e01b5f52604160045260245ffd5b90601f8019910116810190811067ffffffffffffffff8211176115cc57604052565b5f1981146116105760010190565b634e487b7160e01b5f52601160045260245ffd5b1561162b57565b60405162461bcd60e51b815260206004820152600d60248201526c18995d081b9bdd08199bdd5b99609a1b6044820152606490fd5b1561166757565b60405162461bcd60e51b815260206004820152601060248201526f185b1c9958591e481c995cdbdb1d995960821b6044820152606490fd5b8181029291811591840414171561161057565b9061ffff8092166127100391821161161057565b156116cd57565b60405162461bcd60e51b815260206004820152600c60248201526b1b9bdd081e5bdd5c8818995d60a21b6044820152606490fd5b1561170857565b60405162461bcd60e51b815260206004820152600c60248201526b7a65726f206164647265737360a01b6044820152606490fd5b6040516323b872dd60e01b5f9081526001600160a01b03938416600452938316602452604494909452909160209060648180855af160015f51148116156117a6575b836040525f6060521561179057505050565b635274afe760e01b835216600482015260249150fd5b60018115166117bc57813b15153d15161661177e565b833d5f823e3d90fd5b5f546001600160a01b031633036117d857565b60405162461bcd60e51b815260206004820152601660248201527527b7363c9031b0b63630b1363290313c9037bbb732b960511b6044820152606490fd5b60405163a9059cbb60e01b5f9081526001600160a01b039384166004526024949094529260209060448180855af160015f511481161561185f575b836040521561179057505050565b60018115166117bc57813b15153d151616611851565b5f805160206119ef83398151915260028154146118925760029055565b604051633ee5aeb560e01b8152600490fd5b81519190604183036118d4576118cd9250602082015190606060408401519301515f1a90611961565b9192909190565b50505f9160029190565b600481101561194d57806118f0575050565b6001810361190a5760405163f645eedf60e01b8152600490fd5b6002810361192b5760405163fce698f760e01b815260048101839052602490fd5b6003146119355750565b602490604051906335e2f38360e21b82526004820152fd5b634e487b7160e01b5f52602160045260245ffd5b91907f7fffffffffffffffffffffffffffffff5d576e7357a4501ddfe92f46681b20a084116119e3579160209360809260ff5f9560405194855216868401526040830152606082015282805260015afa156119d8575f516001600160a01b038116156119ce57905f905f90565b505f906001905f90565b6040513d5f823e3d90fd5b5050505f916003919056fe9b779b17422d0df92223018b32b4d1fa46e071723d6817e2486d003becc55f00a2646970667358221220e130aa95fbccb430be460186771f918162eb32ef0516516dd108b1b68d88bf1564736f6c63430008180033","linkReferences":{}},"methodIdentifiers":{"EMERGENCY_DELAY()":"82944e2d","MAX_HOUSE_EDGE()":"607caf83","acceptOwnership()":"79ba5097","betCounter()":"a416f5ab","bets(uint256)":"22af00fa","currentEpochId()":"eacdc5ff","executeEmergencyExit(uint256)":"afb88cda","exitRequestedAt(uint256)":"150417be","expectedPayout(uint256)":"7406260e","fundHouseBank(uint256)":"04cbbf8b","houseBankBalance()":"2d22ed12","houseEdgeBps()":"00998421","isVrfPending()":"ab31ebf0","owner()":"8da5cb5b","pendingVrfEpochId()":"06136cbc","pendingVrfRequestId()":"a30885fa","placeBet(uint32,uint16,uint16,uint256)":"58fd6f15","rawFulfillRandomWords(uint256,uint256[])":"1fe543e3","requestEmergencyExit(uint256)":"7494e70f","requestVrf()":"47555a34","resolveBet(uint256,bool,bytes)":"50d6756c","resolverSigner()":"096b4254","s_vrfCoordinator()":"9eccacf6","setCoordinator(address)":"8ea98117","setHouseEdge(uint16)":"3a10349b","setResolverSigner(address)":"e7d36428","setTreasury(address)":"f0f44260","token()":"fc0c546a","transferOwnership(address)":"f2fde38b","treasury()":"61d027b3","vrfKeyHash()":"041d443e","vrfRequestEpoch(uint256)":"885feec4","vrfSubscriptionId()":"ed647d21","withdrawHouseBank(uint256)":"3e701d5a"},"id":50}