{"abi":[{"type":"constructor","inputs":[{"name":"admin","type":"address","internalType":"address"}],"stateMutability":"nonpayable"},{"type":"function","name":"DEFAULT_ADMIN_ROLE","inputs":[],"outputs":[{"name":"","type":"bytes32","internalType":"bytes32"}],"stateMutability":"view"},{"type":"function","name":"MINTER_ROLE","inputs":[],"outputs":[{"name":"","type":"bytes32","internalType":"bytes32"}],"stateMutability":"view"},{"type":"function","name":"allowance","inputs":[{"name":"owner","type":"address","internalType":"address"},{"name":"spender","type":"address","internalType":"address"}],"outputs":[{"name":"","type":"uint256","internalType":"uint256"}],"stateMutability":"view"},{"type":"function","name":"approve","inputs":[{"name":"spender","type":"address","internalType":"address"},{"name":"value","type":"uint256","internalType":"uint256"}],"outputs":[{"name":"","type":"bool","internalType":"bool"}],"stateMutability":"nonpayable"},{"type":"function","name":"balanceOf","inputs":[{"name":"account","type":"address","internalType":"address"}],"outputs":[{"name":"","type":"uint256","internalType":"uint256"}],"stateMutability":"view"},{"type":"function","name":"burn","inputs":[{"name":"amount","type":"uint256","internalType":"uint256"}],"outputs":[],"stateMutability":"nonpayable"},{"type":"function","name":"decimals","inputs":[],"outputs":[{"name":"","type":"uint8","internalType":"uint8"}],"stateMutability":"view"},{"type":"function","name":"getRoleAdmin","inputs":[{"name":"role","type":"bytes32","internalType":"bytes32"}],"outputs":[{"name":"","type":"bytes32","internalType":"bytes32"}],"stateMutability":"view"},{"type":"function","name":"grantRole","inputs":[{"name":"role","type":"bytes32","internalType":"bytes32"},{"name":"account","type":"address","internalType":"address"}],"outputs":[],"stateMutability":"nonpayable"},{"type":"function","name":"hasRole","inputs":[{"name":"role","type":"bytes32","internalType":"bytes32"},{"name":"account","type":"address","internalType":"address"}],"outputs":[{"name":"","type":"bool","internalType":"bool"}],"stateMutability":"view"},{"type":"function","name":"mint","inputs":[{"name":"to","type":"address","internalType":"address"},{"name":"amount","type":"uint256","internalType":"uint256"}],"outputs":[],"stateMutability":"nonpayable"},{"type":"function","name":"name","inputs":[],"outputs":[{"name":"","type":"string","internalType":"string"}],"stateMutability":"view"},{"type":"function","name":"renounceRole","inputs":[{"name":"role","type":"bytes32","internalType":"bytes32"},{"name":"callerConfirmation","type":"address","internalType":"address"}],"outputs":[],"stateMutability":"nonpayable"},{"type":"function","name":"revokeRole","inputs":[{"name":"role","type":"bytes32","internalType":"bytes32"},{"name":"account","type":"address","internalType":"address"}],"outputs":[],"stateMutability":"nonpayable"},{"type":"function","name":"supportsInterface","inputs":[{"name":"interfaceId","type":"bytes4","internalType":"bytes4"}],"outputs":[{"name":"","type":"bool","internalType":"bool"}],"stateMutability":"view"},{"type":"function","name":"symbol","inputs":[],"outputs":[{"name":"","type":"string","internalType":"string"}],"stateMutability":"view"},{"type":"function","name":"totalSupply","inputs":[],"outputs":[{"name":"","type":"uint256","internalType":"uint256"}],"stateMutability":"view"},{"type":"function","name":"transfer","inputs":[{"name":"to","type":"address","internalType":"address"},{"name":"value","type":"uint256","internalType":"uint256"}],"outputs":[{"name":"","type":"bool","internalType":"bool"}],"stateMutability":"nonpayable"},{"type":"function","name":"transferFrom","inputs":[{"name":"from","type":"address","internalType":"address"},{"name":"to","type":"address","internalType":"address"},{"name":"value","type":"uint256","internalType":"uint256"}],"outputs":[{"name":"","type":"bool","internalType":"bool"}],"stateMutability":"nonpayable"},{"type":"event","name":"Approval","inputs":[{"name":"owner","type":"address","indexed":true,"internalType":"address"},{"name":"spender","type":"address","indexed":true,"internalType":"address"},{"name":"value","type":"uint256","indexed":false,"internalType":"uint256"}],"anonymous":false},{"type":"event","name":"RoleAdminChanged","inputs":[{"name":"role","type":"bytes32","indexed":true,"internalType":"bytes32"},{"name":"previousAdminRole","type":"bytes32","indexed":true,"internalType":"bytes32"},{"name":"newAdminRole","type":"bytes32","indexed":true,"internalType":"bytes32"}],"anonymous":false},{"type":"event","name":"RoleGranted","inputs":[{"name":"role","type":"bytes32","indexed":true,"internalType":"bytes32"},{"name":"account","type":"address","indexed":true,"internalType":"address"},{"name":"sender","type":"address","indexed":true,"internalType":"address"}],"anonymous":false},{"type":"event","name":"RoleRevoked","inputs":[{"name":"role","type":"bytes32","indexed":true,"internalType":"bytes32"},{"name":"account","type":"address","indexed":true,"internalType":"address"},{"name":"sender","type":"address","indexed":true,"internalType":"address"}],"anonymous":false},{"type":"event","name":"Transfer","inputs":[{"name":"from","type":"address","indexed":true,"internalType":"address"},{"name":"to","type":"address","indexed":true,"internalType":"address"},{"name":"value","type":"uint256","indexed":false,"internalType":"uint256"}],"anonymous":false},{"type":"error","name":"AccessControlBadConfirmation","inputs":[]},{"type":"error","name":"AccessControlUnauthorizedAccount","inputs":[{"name":"account","type":"address","internalType":"address"},{"name":"neededRole","type":"bytes32","internalType":"bytes32"}]},{"type":"error","name":"ERC20InsufficientAllowance","inputs":[{"name":"spender","type":"address","internalType":"address"},{"name":"allowance","type":"uint256","internalType":"uint256"},{"name":"needed","type":"uint256","internalType":"uint256"}]},{"type":"error","name":"ERC20InsufficientBalance","inputs":[{"name":"sender","type":"address","internalType":"address"},{"name":"balance","type":"uint256","internalType":"uint256"},{"name":"needed","type":"uint256","internalType":"uint256"}]},{"type":"error","name":"ERC20InvalidApprover","inputs":[{"name":"approver","type":"address","internalType":"address"}]},{"type":"error","name":"ERC20InvalidReceiver","inputs":[{"name":"receiver","type":"address","internalType":"address"}]},{"type":"error","name":"ERC20InvalidSender","inputs":[{"name":"sender","type":"address","internalType":"address"}]},{"type":"error","name":"ERC20InvalidSpender","inputs":[{"name":"spender","type":"address","internalType":"address"}]}],"bytecode":{"object":"0x6080346200031a57601f90601f196001600160401b036200103738819003858101841685018381118682101762000229578592829160405283396020948591810103126200031a5751926001600160a01b03841684036200031a57620000646200031e565b6200006e6200031e565b95815192848411620002295760039384546001948582811c921680156200030f575b84831014620002fb578185849311620002a8575b50839085831160011462000249575f926200023d575b50505f1982871b1c191690841b1784555b8751948511620002295760049586548481811c911680156200021e575b838210146200020b57838111620001c3575b50819286116001146200015957505083929183916200013c985f956200014d575b50501b925f19911b1c19161790555b62000135816200034f565b50620003bf565b50604051610b969081620004618239f35b015193505f806200011b565b8594929193951697865f52835f20935f905b8a8210620001ab575050846200013c991062000191575b50505050811b0190556200012a565b01519060f8845f19921b161c191690555f80808062000182565b8088859782949686015181550196019301906200016b565b875f52825f208480890160051c820192858a1062000201575b0160051c019085905b828110620001f5575050620000fa565b5f8155018590620001e5565b92508192620001dc565b602288634e487b7160e01b5f525260245ffd5b90607f1690620000e8565b634e487b7160e01b5f52604160045260245ffd5b015190505f80620000ba565b908987941691885f52855f20925f5b8782821062000291575050841162000279575b505050811b018455620000cb565b01515f1983891b60f8161c191690555f80806200026b565b8385015186558a9790950194938401930162000258565b909150865f52835f208580850160051c820192868610620002f1575b918891869594930160051c01915b828110620002e2575050620000a4565b5f8155859450889101620002d2565b92508192620002c4565b634e487b7160e01b5f52602260045260245ffd5b91607f169162000090565b5f80fd5b60408051919082016001600160401b03811183821017620002295760405260048252635350524d60e01b6020830152565b6001600160a01b03165f8181525f8051602062001017833981519152602052604090205460ff16620003ba575f8181525f805160206200101783398151915260205260408120805460ff191660011790553391905f8051602062000ff78339815191528180a4600190565b505f90565b6001600160a01b03165f8181527f15a28d26fa1bf736cf7edc9922607171ccb09c3c73b808e7772a3013e068a52260205260409020547f9f2df0fed2c77648de5860a4cc508cd0818c85b8b8a1ab4ceeef8d981c8956a6919060ff166200045a57815f52600560205260405f20815f5260205260405f20600160ff1982541617905533915f8051602062000ff78339815191525f80a4600190565b50505f9056fe6080604090808252600480361015610015575f80fd5b5f3560e01c91826301ffc9a71461088f5750816306fdde03146107b4578163095ea7b31461070c57816318160ddd146106ee57816323b872dd146105fc578163248a9ca3146105d25781632f2ff15d146105aa578163313ce5671461058f57816336568abe1461054b57816340c10f191461044957816342966c681461039657816370a082311461036057816391d148541461031c57816395d89b41146101fd578163a217fddf146101e3578163a9059cbb146101b3578163d539139314610179578163d547741f1461013d575063dd62ed3e146100f1575f80fd5b3461013957806003193601126101395760209061010c610928565b61011461093e565b9060018060a01b038091165f5260018452825f2091165f528252805f20549051908152f35b5f80fd5b82346101395780600319360112610139576101779135610172600161016061093e565b93835f5260056020525f200154610a2e565b610aec565b005b8234610139575f36600319011261013957602090517f9f2df0fed2c77648de5860a4cc508cd0818c85b8b8a1ab4ceeef8d981c8956a68152f35b82346101395780600319360112610139576020906101dc6101d2610928565b6024359033610954565b5160018152f35b8234610139575f36600319011261013957602090515f8152f35b8234610139575f366003190112610139578051905f835460018160011c9060018316928315610312575b60209384841081146102ff578388529081156102e3575060011461028f575b505050829003601f01601f191682019267ffffffffffffffff84118385101761027c57508291826102789252826108e1565b0390f35b604190634e487b7160e01b5f525260245ffd5b5f878152929350837f8a35acfbc15ff81a39ae7d344fd709f28e8600b4aa8c65c6b64bfe7fe36bd19b5b8385106102cf5750505050830101848080610246565b8054888601830152930192849082016102b9565b60ff1916878501525050151560051b8401019050848080610246565b602289634e487b7160e01b5f525260245ffd5b91607f1691610227565b823461013957806003193601126101395760209161033861093e565b90355f5260058352815f209060018060a01b03165f52825260ff815f20541690519015158152f35b8234610139576020366003190112610139576020906001600160a01b03610385610928565b165f525f8252805f20549051908152f35b823461013957602036600319011261013957813590331561043457335f525f602052805f2054928284106104085750815f933385528460205203818420558160025403600255519081527fddf252ad1be2c89b69c2b068fc378daa952ba7f163c4a11628f55a4df523b3ef60203392a3005b905163391434e360e21b8152339181019182526020820193909352604081019190915281906060010390fd5b51634b637e8f60e11b81525f81840152602490fd5b8234610139578060031936011261013957610462610928565b90602435917f9f2df0fed2c77648de5860a4cc508cd0818c85b8b8a1ab4ceeef8d981c8956a6805f526005602052825f20335f5260205260ff835f2054161561052d57506001600160a01b0316928315610518576002549083820180921161050557505f927fddf252ad1be2c89b69c2b068fc378daa952ba7f163c4a11628f55a4df523b3ef9260209260025585855284835280852082815401905551908152a3005b601190634e487b7160e01b5f525260245ffd5b5f602492519163ec442f0560e01b8352820152fd5b825163e2517d3f60e01b815233818701526024810191909152604490fd5b823461013957806003193601126101395761056461093e565b90336001600160a01b0383160361058057506101779135610aec565b5163334bd91960e11b81529050fd5b8234610139575f366003190112610139576020905160128152f35b823461013957806003193601126101395761017791356105cd600161016061093e565b610a6e565b823461013957602036600319011261013957602091355f52600582526001815f2001549051908152f35b90503461013957606036600319011261013957610617610928565b61061f61093e565b906044359260018060a01b038216805f526001602052855f20335f52602052855f2054915f19831061065a575b6020876101dc888888610954565b8583106106c25781156106ac57331561069657505f908152600160209081528682203383528152908690209185900390915582906101dc61064c565b6024905f885191634a1406b160e11b8352820152fd5b6024905f88519163e602df0560e01b8352820152fd5b8651637dc7a0d960e11b8152339181019182526020820193909352604081018690528291506060010390fd5b8234610139575f366003190112610139576020906002549051908152f35b8234610139578060031936011261013957610725610928565b60243590331561079e576001600160a01b03169081156107885760209350335f5260018452825f20825f52845280835f205582519081527f8c5be1e5ebec7d5bd14f71427d1e84f3dd0314c0f7b2291e5b200ac8c7c3b925843392a35160018152f35b8251634a1406b160e11b81525f81860152602490fd5b825163e602df0560e01b81525f81860152602490fd5b8234610139575f366003190112610139578051905f60035460018160011c9060018316928315610885575b60209384841081146102ff578388529081156102e3575060011461082f57505050829003601f01601f191682019267ffffffffffffffff84118385101761027c57508291826102789252826108e1565b60035f908152929350837fc2575a0e9e593c00f959f8c92f12db2869c3395a3b0502d05e2516446f71f85b5b8385106108715750505050830101848080610246565b80548886018301529301928490820161085b565b91607f16916107df565b903461013957602036600319011261013957359063ffffffff60e01b821680920361013957602091637965db0b60e01b81149081156108d0575b5015158152f35b6301ffc9a760e01b149050836108c9565b602080825282518183018190529093925f5b82811061091457505060409293505f838284010152601f8019910116010190565b8181018601518482016040015285016108f3565b600435906001600160a01b038216820361013957565b602435906001600160a01b038216820361013957565b916001600160a01b03808416928315610a1657169283156109fe57825f525f60205260405f2054908282106109cc5750817fddf252ad1be2c89b69c2b068fc378daa952ba7f163c4a11628f55a4df523b3ef92602092855f525f84520360405f2055845f5260405f20818154019055604051908152a3565b60405163391434e360e21b81526001600160a01b03919091166004820152602481019190915260448101829052606490fd5b60405163ec442f0560e01b81525f6004820152602490fd5b604051634b637e8f60e11b81525f6004820152602490fd5b805f52600560205260405f20335f5260205260ff60405f20541615610a505750565b6044906040519063e2517d3f60e01b82523360048301526024820152fd5b90815f52600560205260405f209060018060a01b031690815f5260205260ff60405f205416155f14610ae657815f52600560205260405f20815f5260205260405f20600160ff1982541617905533917f2f8788117e7eff1d82e926ec794901d17c78024a50270940304540a733656f0d5f80a4600190565b50505f90565b90815f52600560205260405f209060018060a01b031690815f5260205260ff60405f2054165f14610ae657815f52600560205260405f20815f5260205260405f2060ff19815416905533917ff6391f5c32d9c69d2a47ea670b442974b53935d1edc7fd64eb21e047a839171b5f80a460019056fea2646970667358221220e869dfcff07988de0439f0a00ec330359a478067a3d7403db80e794ed8ddbb2e64736f6c634300081800332f8788117e7eff1d82e926ec794901d17c78024a50270940304540a733656f0d05b8ccbb9d4d8fb16ea74ce3c29a41f1b461fbdaff4714a0d9a8eb05499746bc","linkReferences":{}},"methodIdentifiers":{"DEFAULT_ADMIN_ROLE()":"a217fddf","MINTER_ROLE()":"d5391393","allowance(address,address)":"dd62ed3e","approve(address,uint256)":"095ea7b3","balanceOf(address)":"70a08231","burn(uint256)":"42966c68","decimals()":"313ce567","getRoleAdmin(bytes32)":"248a9ca3","grantRole(bytes32,address)":"2f2ff15d","hasRole(bytes32,address)":"91d14854","mint(address,uint256)":"40c10f19","name()":"06fdde03","renounceRole(bytes32,address)":"36568abe","revokeRole(bytes32,address)":"d547741f","supportsInterface(bytes4)":"01ffc9a7","symbol()":"95d89b41","totalSupply()":"18160ddd","transfer(address,uint256)":"a9059cbb","transferFrom(address,address,uint256)":"23b872dd"},"id":52}